{
  "_format": "hh-sol-artifact-1",
  "contractName": "MockUSDC",
  "sourceName": "contracts/mocks/MockUSDC.sol",
  "abi": [
    {
      "inputs": [],
      "stateMutability": "nonpayable",
      "type": "constructor"
    },
    {
      "inputs": [
        {
          "internalType": "address",
          "name": "spender",
          "type": "address"
        },
        {
          "internalType": "uint256",
          "name": "allowance",
          "type": "uint256"
        },
        {
          "internalType": "uint256",
          "name": "needed",
          "type": "uint256"
        }
      ],
      "name": "ERC20InsufficientAllowance",
      "type": "error"
    },
    {
      "inputs": [
        {
          "internalType": "address",
          "name": "sender",
          "type": "address"
        },
        {
          "internalType": "uint256",
          "name": "balance",
          "type": "uint256"
        },
        {
          "internalType": "uint256",
          "name": "needed",
          "type": "uint256"
        }
      ],
      "name": "ERC20InsufficientBalance",
      "type": "error"
    },
    {
      "inputs": [
        {
          "internalType": "address",
          "name": "approver",
          "type": "address"
        }
      ],
      "name": "ERC20InvalidApprover",
      "type": "error"
    },
    {
      "inputs": [
        {
          "internalType": "address",
          "name": "receiver",
          "type": "address"
        }
      ],
      "name": "ERC20InvalidReceiver",
      "type": "error"
    },
    {
      "inputs": [
        {
          "internalType": "address",
          "name": "sender",
          "type": "address"
        }
      ],
      "name": "ERC20InvalidSender",
      "type": "error"
    },
    {
      "inputs": [
        {
          "internalType": "address",
          "name": "spender",
          "type": "address"
        }
      ],
      "name": "ERC20InvalidSpender",
      "type": "error"
    },
    {
      "anonymous": false,
      "inputs": [
        {
          "indexed": true,
          "internalType": "address",
          "name": "owner",
          "type": "address"
        },
        {
          "indexed": true,
          "internalType": "address",
          "name": "spender",
          "type": "address"
        },
        {
          "indexed": false,
          "internalType": "uint256",
          "name": "value",
          "type": "uint256"
        }
      ],
      "name": "Approval",
      "type": "event"
    },
    {
      "anonymous": false,
      "inputs": [
        {
          "indexed": true,
          "internalType": "address",
          "name": "from",
          "type": "address"
        },
        {
          "indexed": true,
          "internalType": "address",
          "name": "to",
          "type": "address"
        },
        {
          "indexed": false,
          "internalType": "uint256",
          "name": "value",
          "type": "uint256"
        }
      ],
      "name": "Transfer",
      "type": "event"
    },
    {
      "inputs": [
        {
          "internalType": "address",
          "name": "owner",
          "type": "address"
        },
        {
          "internalType": "address",
          "name": "spender",
          "type": "address"
        }
      ],
      "name": "allowance",
      "outputs": [
        {
          "internalType": "uint256",
          "name": "",
          "type": "uint256"
        }
      ],
      "stateMutability": "view",
      "type": "function"
    },
    {
      "inputs": [
        {
          "internalType": "address",
          "name": "spender",
          "type": "address"
        },
        {
          "internalType": "uint256",
          "name": "value",
          "type": "uint256"
        }
      ],
      "name": "approve",
      "outputs": [
        {
          "internalType": "bool",
          "name": "",
          "type": "bool"
        }
      ],
      "stateMutability": "nonpayable",
      "type": "function"
    },
    {
      "inputs": [
        {
          "internalType": "address",
          "name": "account",
          "type": "address"
        }
      ],
      "name": "balanceOf",
      "outputs": [
        {
          "internalType": "uint256",
          "name": "",
          "type": "uint256"
        }
      ],
      "stateMutability": "view",
      "type": "function"
    },
    {
      "inputs": [],
      "name": "decimals",
      "outputs": [
        {
          "internalType": "uint8",
          "name": "",
          "type": "uint8"
        }
      ],
      "stateMutability": "view",
      "type": "function"
    },
    {
      "inputs": [],
      "name": "faucet",
      "outputs": [],
      "stateMutability": "nonpayable",
      "type": "function"
    },
    {
      "inputs": [
        {
          "internalType": "address",
          "name": "to",
          "type": "address"
        },
        {
          "internalType": "uint256",
          "name": "amount",
          "type": "uint256"
        }
      ],
      "name": "mint",
      "outputs": [],
      "stateMutability": "nonpayable",
      "type": "function"
    },
    {
      "inputs": [],
      "name": "name",
      "outputs": [
        {
          "internalType": "string",
          "name": "",
          "type": "string"
        }
      ],
      "stateMutability": "view",
      "type": "function"
    },
    {
      "inputs": [],
      "name": "symbol",
      "outputs": [
        {
          "internalType": "string",
          "name": "",
          "type": "string"
        }
      ],
      "stateMutability": "view",
      "type": "function"
    },
    {
      "inputs": [],
      "name": "totalSupply",
      "outputs": [
        {
          "internalType": "uint256",
          "name": "",
          "type": "uint256"
        }
      ],
      "stateMutability": "view",
      "type": "function"
    },
    {
      "inputs": [
        {
          "internalType": "address",
          "name": "to",
          "type": "address"
        },
        {
          "internalType": "uint256",
          "name": "value",
          "type": "uint256"
        }
      ],
      "name": "transfer",
      "outputs": [
        {
          "internalType": "bool",
          "name": "",
          "type": "bool"
        }
      ],
      "stateMutability": "nonpayable",
      "type": "function"
    },
    {
      "inputs": [
        {
          "internalType": "address",
          "name": "from",
          "type": "address"
        },
        {
          "internalType": "address",
          "name": "to",
          "type": "address"
        },
        {
          "internalType": "uint256",
          "name": "value",
          "type": "uint256"
        }
      ],
      "name": "transferFrom",
      "outputs": [
        {
          "internalType": "bool",
          "name": "",
          "type": "bool"
        }
      ],
      "stateMutability": "nonpayable",
      "type": "function"
    }
  ],
  "bytecode": "0x60806040526005805460ff191660061790553480156200001e57600080fd5b50604051806040016040528060088152602001672aa9a21021b7b4b760c11b815250604051806040016040528060048152602001635553444360e01b81525081600390816200006e9190620002cf565b5060046200007d8282620002cf565b5050600554620000af915033906200009a9060ff16600a620004b0565b620000a990620f4240620004c8565b620000b5565b620004f8565b6001600160a01b038216620000e55760405163ec442f0560e01b8152600060048201526024015b60405180910390fd5b620000f360008383620000f7565b5050565b6001600160a01b038316620001265780600260008282546200011a9190620004e2565b909155506200019a9050565b6001600160a01b038316600090815260208190526040902054818110156200017b5760405163391434e360e21b81526001600160a01b03851660048201526024810182905260448101839052606401620000dc565b6001600160a01b03841660009081526020819052604090209082900390555b6001600160a01b038216620001b857600280548290039055620001d7565b6001600160a01b03821660009081526020819052604090208054820190555b816001600160a01b0316836001600160a01b03167fddf252ad1be2c89b69c2b068fc378daa952ba7f163c4a11628f55a4df523b3ef836040516200021d91815260200190565b60405180910390a3505050565b634e487b7160e01b600052604160045260246000fd5b600181811c908216806200025557607f821691505b6020821081036200027657634e487b7160e01b600052602260045260246000fd5b50919050565b601f821115620002ca57600081815260208120601f850160051c81016020861015620002a55750805b601f850160051c820191505b81811015620002c657828155600101620002b1565b5050505b505050565b81516001600160401b03811115620002eb57620002eb6200022a565b6200030381620002fc845462000240565b846200027c565b602080601f8311600181146200033b5760008415620003225750858301515b600019600386901b1c1916600185901b178555620002c6565b600085815260208120601f198616915b828110156200036c578886015182559484019460019091019084016200034b565b50858210156200038b5787850151600019600388901b60f8161c191681555b5050505050600190811b01905550565b634e487b7160e01b600052601160045260246000fd5b600181815b80851115620003f2578160001904821115620003d657620003d66200039b565b80851615620003e457918102915b93841c9390800290620003b6565b509250929050565b6000826200040b57506001620004aa565b816200041a57506000620004aa565b81600181146200043357600281146200043e576200045e565b6001915050620004aa565b60ff8411156200045257620004526200039b565b50506001821b620004aa565b5060208310610133831016604e8410600b841016171562000483575081810a620004aa565b6200048f8383620003b1565b8060001904821115620004a657620004a66200039b565b0290505b92915050565b6000620004c160ff841683620003fa565b9392505050565b8082028115828204841417620004aa57620004aa6200039b565b80820180821115620004aa57620004aa6200039b565b6108da80620005086000396000f3fe608060405234801561001057600080fd5b50600436106100a95760003560e01c806340c10f191161007157806340c10f191461012957806370a082311461013e57806395d89b4114610167578063a9059cbb1461016f578063dd62ed3e14610182578063de5f72fd146101bb57600080fd5b806306fdde03146100ae578063095ea7b3146100cc57806318160ddd146100ef57806323b872dd14610101578063313ce56714610114575b600080fd5b6100b66101c3565b6040516100c39190610612565b60405180910390f35b6100df6100da36600461067c565b610255565b60405190151581526020016100c3565b6002545b6040519081526020016100c3565b6100df61010f3660046106a6565b61026f565b60055460405160ff90911681526020016100c3565b61013c61013736600461067c565b610293565b005b6100f361014c3660046106e2565b6001600160a01b031660009081526020819052604090205490565b6100b66102a1565b6100df61017d36600461067c565b6102b0565b6100f3610190366004610704565b6001600160a01b03918216600090815260016020908152604080832093909416825291909152205490565b61013c6102be565b6060600380546101d290610737565b80601f01602080910402602001604051908101604052809291908181526020018280546101fe90610737565b801561024b5780601f106102205761010080835404028352916020019161024b565b820191906000526020600020905b81548152906001019060200180831161022e57829003601f168201915b5050505050905090565b6000336102638185856102e8565b60019150505b92915050565b60003361027d8582856102fa565b61028885858561037e565b506001949350505050565b61029d82826103dd565b5050565b6060600480546101d290610737565b60003361026381858561037e565b6005546102e69033906102d59060ff16600a61086b565b6102e1906103e861087a565b6103dd565b565b6102f58383836001610413565b505050565b6001600160a01b03838116600090815260016020908152604080832093861683529290522054600019811015610378578181101561036957604051637dc7a0d960e11b81526001600160a01b038416600482015260248101829052604481018390526064015b60405180910390fd5b61037884848484036000610413565b50505050565b6001600160a01b0383166103a857604051634b637e8f60e11b815260006004820152602401610360565b6001600160a01b0382166103d25760405163ec442f0560e01b815260006004820152602401610360565b6102f58383836104e8565b6001600160a01b0382166104075760405163ec442f0560e01b815260006004820152602401610360565b61029d600083836104e8565b6001600160a01b03841661043d5760405163e602df0560e01b815260006004820152602401610360565b6001600160a01b03831661046757604051634a1406b160e11b815260006004820152602401610360565b6001600160a01b038085166000908152600160209081526040808320938716835292905220829055801561037857826001600160a01b0316846001600160a01b03167f8c5be1e5ebec7d5bd14f71427d1e84f3dd0314c0f7b2291e5b200ac8c7c3b925846040516104da91815260200190565b60405180910390a350505050565b6001600160a01b0383166105135780600260008282546105089190610891565b909155506105859050565b6001600160a01b038316600090815260208190526040902054818110156105665760405163391434e360e21b81526001600160a01b03851660048201526024810182905260448101839052606401610360565b6001600160a01b03841660009081526020819052604090209082900390555b6001600160a01b0382166105a1576002805482900390556105c0565b6001600160a01b03821660009081526020819052604090208054820190555b816001600160a01b0316836001600160a01b03167fddf252ad1be2c89b69c2b068fc378daa952ba7f163c4a11628f55a4df523b3ef8360405161060591815260200190565b60405180910390a3505050565b600060208083528351808285015260005b8181101561063f57858101830151858201604001528201610623565b506000604082860101526040601f19601f8301168501019250505092915050565b80356001600160a01b038116811461067757600080fd5b919050565b6000806040838503121561068f57600080fd5b61069883610660565b946020939093013593505050565b6000806000606084860312156106bb57600080fd5b6106c484610660565b92506106d260208501610660565b9150604084013590509250925092565b6000602082840312156106f457600080fd5b6106fd82610660565b9392505050565b6000806040838503121561071757600080fd5b61072083610660565b915061072e60208401610660565b90509250929050565b600181811c9082168061074b57607f821691505b60208210810361076b57634e487b7160e01b600052602260045260246000fd5b50919050565b634e487b7160e01b600052601160045260246000fd5b600181815b808511156107c25781600019048211156107a8576107a8610771565b808516156107b557918102915b93841c939080029061078c565b509250929050565b6000826107d957506001610269565b816107e657506000610269565b81600181146107fc576002811461080657610822565b6001915050610269565b60ff84111561081757610817610771565b50506001821b610269565b5060208310610133831016604e8410600b8410161715610845575081810a610269565b61084f8383610787565b806000190482111561086357610863610771565b029392505050565b60006106fd60ff8416836107ca565b808202811582820484141761026957610269610771565b808201808211156102695761026961077156fea2646970667358221220debbd43ca6fee63897a5c3d88f8954105b32fa95a4d4a8288c51b50f58e77ee564736f6c63430008140033",
  "linkReferences": {},
  "deployedLinkReferences": {}
}