{
  "_format": "hh-sol-artifact-1",
  "contractName": "RemittanceEscrow",
  "sourceName": "contracts/RemittanceEscrow.sol",
  "abi": [
    {
      "inputs": [
        {
          "internalType": "address",
          "name": "_usdcAddress",
          "type": "address"
        }
      ],
      "stateMutability": "nonpayable",
      "type": "constructor"
    },
    {
      "inputs": [
        {
          "internalType": "address",
          "name": "owner",
          "type": "address"
        }
      ],
      "name": "OwnableInvalidOwner",
      "type": "error"
    },
    {
      "inputs": [
        {
          "internalType": "address",
          "name": "account",
          "type": "address"
        }
      ],
      "name": "OwnableUnauthorizedAccount",
      "type": "error"
    },
    {
      "inputs": [],
      "name": "ReentrancyGuardReentrantCall",
      "type": "error"
    },
    {
      "inputs": [
        {
          "internalType": "address",
          "name": "token",
          "type": "address"
        }
      ],
      "name": "SafeERC20FailedOperation",
      "type": "error"
    },
    {
      "anonymous": false,
      "inputs": [
        {
          "indexed": true,
          "internalType": "address",
          "name": "previousOwner",
          "type": "address"
        },
        {
          "indexed": true,
          "internalType": "address",
          "name": "newOwner",
          "type": "address"
        }
      ],
      "name": "OwnershipTransferred",
      "type": "event"
    },
    {
      "anonymous": false,
      "inputs": [
        {
          "indexed": true,
          "internalType": "bytes32",
          "name": "remittanceId",
          "type": "bytes32"
        },
        {
          "indexed": false,
          "internalType": "uint256",
          "name": "timestamp",
          "type": "uint256"
        }
      ],
      "name": "RemittanceCompleted",
      "type": "event"
    },
    {
      "anonymous": false,
      "inputs": [
        {
          "indexed": true,
          "internalType": "bytes32",
          "name": "remittanceId",
          "type": "bytes32"
        },
        {
          "indexed": true,
          "internalType": "address",
          "name": "sender",
          "type": "address"
        },
        {
          "indexed": false,
          "internalType": "string",
          "name": "recipientId",
          "type": "string"
        },
        {
          "indexed": false,
          "internalType": "uint256",
          "name": "amountUSDC",
          "type": "uint256"
        },
        {
          "indexed": false,
          "internalType": "uint256",
          "name": "targetAmountCOP",
          "type": "uint256"
        },
        {
          "indexed": false,
          "internalType": "uint256",
          "name": "exchangeRate",
          "type": "uint256"
        }
      ],
      "name": "RemittanceCreated",
      "type": "event"
    },
    {
      "anonymous": false,
      "inputs": [
        {
          "indexed": true,
          "internalType": "bytes32",
          "name": "remittanceId",
          "type": "bytes32"
        },
        {
          "indexed": false,
          "internalType": "uint256",
          "name": "timestamp",
          "type": "uint256"
        }
      ],
      "name": "RemittanceFunded",
      "type": "event"
    },
    {
      "anonymous": false,
      "inputs": [
        {
          "indexed": true,
          "internalType": "bytes32",
          "name": "remittanceId",
          "type": "bytes32"
        },
        {
          "indexed": false,
          "internalType": "uint256",
          "name": "timestamp",
          "type": "uint256"
        }
      ],
      "name": "RemittanceRefunded",
      "type": "event"
    },
    {
      "inputs": [],
      "name": "REFUND_TIMEOUT",
      "outputs": [
        {
          "internalType": "uint256",
          "name": "",
          "type": "uint256"
        }
      ],
      "stateMutability": "view",
      "type": "function"
    },
    {
      "inputs": [
        {
          "internalType": "string",
          "name": "recipientId",
          "type": "string"
        },
        {
          "internalType": "uint256",
          "name": "amountUSDC",
          "type": "uint256"
        },
        {
          "internalType": "uint256",
          "name": "exchangeRate",
          "type": "uint256"
        }
      ],
      "name": "createRemittance",
      "outputs": [
        {
          "internalType": "bytes32",
          "name": "remittanceId",
          "type": "bytes32"
        }
      ],
      "stateMutability": "nonpayable",
      "type": "function"
    },
    {
      "inputs": [
        {
          "internalType": "bytes32",
          "name": "remittanceId",
          "type": "bytes32"
        }
      ],
      "name": "deposit",
      "outputs": [],
      "stateMutability": "nonpayable",
      "type": "function"
    },
    {
      "inputs": [],
      "name": "getContractBalance",
      "outputs": [
        {
          "internalType": "uint256",
          "name": "",
          "type": "uint256"
        }
      ],
      "stateMutability": "view",
      "type": "function"
    },
    {
      "inputs": [
        {
          "internalType": "bytes32",
          "name": "remittanceId",
          "type": "bytes32"
        }
      ],
      "name": "getRemittance",
      "outputs": [
        {
          "components": [
            {
              "internalType": "address",
              "name": "sender",
              "type": "address"
            },
            {
              "internalType": "string",
              "name": "recipientId",
              "type": "string"
            },
            {
              "internalType": "uint256",
              "name": "amountUSDC",
              "type": "uint256"
            },
            {
              "internalType": "uint256",
              "name": "targetAmountCOP",
              "type": "uint256"
            },
            {
              "internalType": "uint256",
              "name": "exchangeRate",
              "type": "uint256"
            },
            {
              "internalType": "enum RemittanceEscrow.Status",
              "name": "status",
              "type": "uint8"
            },
            {
              "internalType": "uint256",
              "name": "createdAt",
              "type": "uint256"
            },
            {
              "internalType": "uint256",
              "name": "fundedAt",
              "type": "uint256"
            },
            {
              "internalType": "uint256",
              "name": "completedAt",
              "type": "uint256"
            }
          ],
          "internalType": "struct RemittanceEscrow.Remittance",
          "name": "",
          "type": "tuple"
        }
      ],
      "stateMutability": "view",
      "type": "function"
    },
    {
      "inputs": [
        {
          "internalType": "address",
          "name": "user",
          "type": "address"
        }
      ],
      "name": "getUserRemittances",
      "outputs": [
        {
          "internalType": "bytes32[]",
          "name": "",
          "type": "bytes32[]"
        }
      ],
      "stateMutability": "view",
      "type": "function"
    },
    {
      "inputs": [],
      "name": "owner",
      "outputs": [
        {
          "internalType": "address",
          "name": "",
          "type": "address"
        }
      ],
      "stateMutability": "view",
      "type": "function"
    },
    {
      "inputs": [
        {
          "internalType": "bytes32",
          "name": "remittanceId",
          "type": "bytes32"
        }
      ],
      "name": "refund",
      "outputs": [],
      "stateMutability": "nonpayable",
      "type": "function"
    },
    {
      "inputs": [
        {
          "internalType": "bytes32",
          "name": "remittanceId",
          "type": "bytes32"
        }
      ],
      "name": "release",
      "outputs": [],
      "stateMutability": "nonpayable",
      "type": "function"
    },
    {
      "inputs": [],
      "name": "remittanceCount",
      "outputs": [
        {
          "internalType": "uint256",
          "name": "",
          "type": "uint256"
        }
      ],
      "stateMutability": "view",
      "type": "function"
    },
    {
      "inputs": [
        {
          "internalType": "bytes32",
          "name": "",
          "type": "bytes32"
        }
      ],
      "name": "remittances",
      "outputs": [
        {
          "internalType": "address",
          "name": "sender",
          "type": "address"
        },
        {
          "internalType": "string",
          "name": "recipientId",
          "type": "string"
        },
        {
          "internalType": "uint256",
          "name": "amountUSDC",
          "type": "uint256"
        },
        {
          "internalType": "uint256",
          "name": "targetAmountCOP",
          "type": "uint256"
        },
        {
          "internalType": "uint256",
          "name": "exchangeRate",
          "type": "uint256"
        },
        {
          "internalType": "enum RemittanceEscrow.Status",
          "name": "status",
          "type": "uint8"
        },
        {
          "internalType": "uint256",
          "name": "createdAt",
          "type": "uint256"
        },
        {
          "internalType": "uint256",
          "name": "fundedAt",
          "type": "uint256"
        },
        {
          "internalType": "uint256",
          "name": "completedAt",
          "type": "uint256"
        }
      ],
      "stateMutability": "view",
      "type": "function"
    },
    {
      "inputs": [],
      "name": "renounceOwnership",
      "outputs": [],
      "stateMutability": "nonpayable",
      "type": "function"
    },
    {
      "inputs": [
        {
          "internalType": "address",
          "name": "newOwner",
          "type": "address"
        }
      ],
      "name": "transferOwnership",
      "outputs": [],
      "stateMutability": "nonpayable",
      "type": "function"
    },
    {
      "inputs": [],
      "name": "usdc",
      "outputs": [
        {
          "internalType": "contract IERC20",
          "name": "",
          "type": "address"
        }
      ],
      "stateMutability": "view",
      "type": "function"
    },
    {
      "inputs": [
        {
          "internalType": "address",
          "name": "",
          "type": "address"
        },
        {
          "internalType": "uint256",
          "name": "",
          "type": "uint256"
        }
      ],
      "name": "userRemittances",
      "outputs": [
        {
          "internalType": "bytes32",
          "name": "",
          "type": "bytes32"
        }
      ],
      "stateMutability": "view",
      "type": "function"
    }
  ],
  "bytecode": "0x60a060405234801561001057600080fd5b5060405161154138038061154183398101604081905261002f9161011b565b338061005657604051631e4fbdf760e01b8152600060048201526024015b60405180910390fd5b61005f816100cb565b50600180556001600160a01b0381166100ba5760405162461bcd60e51b815260206004820152601460248201527f496e76616c696420555344432061646472657373000000000000000000000000604482015260640161004d565b6001600160a01b031660805261014b565b600080546001600160a01b038381166001600160a01b0319831681178455604051919092169283917f8be0079c531659141344cd1fd0a4f28419497f9722a3daafe3b4186f6b6457e09190a35050565b60006020828403121561012d57600080fd5b81516001600160a01b038116811461014457600080fd5b9392505050565b6080516113c761017a6000396000818160ff01528181610745015281816108c20152610b6f01526113c76000f3fe608060405234801561001057600080fd5b50600436106100f55760003560e01c80637b325b88116100975780639c922d2a116100665780639c922d2a146101fb578063a3c6aba214610223578063b214faa514610236578063f2fde38b1461024957600080fd5b80637b325b88146101b75780637d57900a146101c05780638da5cb5b146101ca57806399cf7c92146101db57600080fd5b806367d42a8b116100d357806367d42a8b1461017f5780636f9fb98a14610194578063715018a61461019c5780637249fbb6146101a457600080fd5b80633e413bee146100fa57806347395aac1461013e578063615c8b641461015f575b600080fd5b6101217f000000000000000000000000000000000000000000000000000000000000000081565b6040516001600160a01b0390911681526020015b60405180910390f35b61015161014c366004610e2f565b61025c565b604051908152602001610135565b61017261016d366004610eae565b610541565b6040516101359190610f45565b61019261018d366004610eae565b61067d565b005b61015161072d565b6101926107bd565b6101926101b2366004610eae565b6107d1565b61015160045481565b61015162093a8081565b6000546001600160a01b0316610121565b6101ee6101e9366004610ff8565b61093b565b604051610135919061101a565b61020e610209366004610eae565b6109a7565b6040516101359998979695949392919061105e565b6101516102313660046110c6565b610a86565b610192610244366004610eae565b610ab7565b610192610257366004610ff8565b610bd3565b6000836102a75760405162461bcd60e51b8152602060048201526014602482015273125b9d985b1a59081c9958da5c1a595b9d08125160621b60448201526064015b60405180910390fd5b600083116102f75760405162461bcd60e51b815260206004820152601d60248201527f416d6f756e74206d7573742062652067726561746572207468616e2030000000604482015260640161029e565b6000821161033f5760405162461bcd60e51b8152602060048201526015602482015274496e76616c69642065786368616e6765207261746560581b604482015260640161029e565b6004805490600061034f83611106565b9091555050600454604051610370913391889188918891429160200161111f565b604051602081830303815290604052805190602001209050600061271083856103999190611159565b6103a39190611176565b9050604051806101200160405280336001600160a01b0316815260200187878080601f01602080910402602001604051908101604052809392919081815260200183838082843760009201829052509385525050506020808301889052604080840186905260608401889052608084018390524260a085015260c0840183905260e090930182905285825260028152919020825181546001600160a01b0319166001600160a01b039091161781559082015160018201906104649082611236565b5060408201518160020155606082015181600301556080820151816004015560a08201518160050160006101000a81548160ff021916908360038111156104ad576104ad610f0d565b021790555060c0820151600682015560e0820151600782015561010090910151600890910155336000818152600360209081526040808320805460018101825590845291909220018490555183907f16db891017c8d99b441a3dd42bf906489cdf79c941f410ee2a2f9bf95327b98690610530908a908a908a9088908b906112f6565b60405180910390a350949350505050565b610549610dc9565b6000828152600260209081526040918290208251610120810190935280546001600160a01b031683526001810180549192840191610586906111ae565b80601f01602080910402602001604051908101604052809291908181526020018280546105b2906111ae565b80156105ff5780601f106105d4576101008083540402835291602001916105ff565b820191906000526020600020905b8154815290600101906020018083116105e257829003601f168201915b505050918352505060028201546020820152600380830154604083015260048301546060830152600583015460809092019160ff169081111561064457610644610f0d565b600381111561065557610655610f0d565b8152600682015460208201526007820154604082015260089091015460609091015292915050565b610685610c0e565b61068d610c3b565b60008181526002602052604090206001600582015460ff1660038111156106b6576106b6610f0d565b146106d35760405162461bcd60e51b815260040161029e9061133d565b60058101805460ff19166002179055426008820181905560405190815282907f6ff1806b82ee960422a9a3c8a407566d004ff2079cf095782316ad9fcb969932906020015b60405180910390a25061072a60018055565b50565b6040516370a0823160e01b81523060048201526000907f00000000000000000000000000000000000000000000000000000000000000006001600160a01b0316906370a0823190602401602060405180830381865afa158015610794573d6000803e3d6000fd5b505050506040513d601f19601f820116820180604052508101906107b89190611365565b905090565b6107c5610c0e565b6107cf6000610c65565b565b6107d9610c3b565b60008181526002602052604090206001600582015460ff16600381111561080257610802610f0d565b1461081f5760405162461bcd60e51b815260040161029e9061133d565b600080548254336001600160a01b039283168114939291909116148015610858575062093a808360070154610854919061137e565b4210155b905081806108635750805b6108a05760405162461bcd60e51b815260206004820152600e60248201526d139bdd08185d5d1a1bdc9a5e995960921b604482015260640161029e565b60058301805460ff19166003179055426008840155825460028401546108f5917f00000000000000000000000000000000000000000000000000000000000000006001600160a01b0390811692911690610cb5565b837fbcfe194800cf3872fb001dac6f09f8916307bcfcc56ea6bd7b88ea248ba5ee924260405161092791815260200190565b60405180910390a250505061072a60018055565b6001600160a01b03811660009081526003602090815260409182902080548351818402810184019094528084526060939283018282801561099b57602002820191906000526020600020905b815481526020019060010190808311610987575b50505050509050919050565b600260205260009081526040902080546001820180546001600160a01b0390921692916109d3906111ae565b80601f01602080910402602001604051908101604052809291908181526020018280546109ff906111ae565b8015610a4c5780601f10610a2157610100808354040283529160200191610a4c565b820191906000526020600020905b815481529060010190602001808311610a2f57829003601f168201915b5050506002840154600385015460048601546005870154600688015460078901546008909901549798949793965091945060ff1692909189565b60036020528160005260406000208181548110610aa257600080fd5b90600052602060002001600091509150505481565b610abf610c3b565b600081815260026020526040902080546001600160a01b03163314610b175760405162461bcd60e51b815260206004820152600e60248201526d2737ba103a34329039b2b73232b960911b604482015260640161029e565b6000600582015460ff166003811115610b3257610b32610f0d565b14610b4f5760405162461bcd60e51b815260040161029e9061133d565b60058101805460ff191660011790554260078201556002810154610ba1907f00000000000000000000000000000000000000000000000000000000000000006001600160a01b03169033903090610d19565b817f8ffa024da9dd8239d158f339e8298844d00e670f1272426225ea255ae649a73a4260405161071891815260200190565b610bdb610c0e565b6001600160a01b038116610c0557604051631e4fbdf760e01b81526000600482015260240161029e565b61072a81610c65565b6000546001600160a01b031633146107cf5760405163118cdaa760e01b815233600482015260240161029e565b600260015403610c5e57604051633ee5aeb560e01b815260040160405180910390fd5b6002600155565b600080546001600160a01b038381166001600160a01b0319831681178455604051919092169283917f8be0079c531659141344cd1fd0a4f28419497f9722a3daafe3b4186f6b6457e09190a35050565b6040516001600160a01b03838116602483015260448201839052610d1491859182169063a9059cbb906064015b604051602081830303815290604052915060e01b6020820180516001600160e01b038381831617835250505050610d58565b505050565b6040516001600160a01b038481166024830152838116604483015260648201839052610d529186918216906323b872dd90608401610ce2565b50505050565b600080602060008451602086016000885af180610d7b576040513d6000823e3d81fd5b50506000513d91508115610d93578060011415610da0565b6001600160a01b0384163b155b15610d5257604051635274afe760e01b81526001600160a01b038516600482015260240161029e565b60405180610120016040528060006001600160a01b031681526020016060815260200160008152602001600081526020016000815260200160006003811115610e1457610e14610f0d565b81526020016000815260200160008152602001600081525090565b60008060008060608587031215610e4557600080fd5b843567ffffffffffffffff80821115610e5d57600080fd5b818701915087601f830112610e7157600080fd5b813581811115610e8057600080fd5b886020828501011115610e9257600080fd5b6020928301999098509187013596604001359550909350505050565b600060208284031215610ec057600080fd5b5035919050565b6000815180845260005b81811015610eed57602081850181015186830182015201610ed1565b506000602082860101526020601f19601f83011685010191505092915050565b634e487b7160e01b600052602160045260246000fd5b60048110610f4157634e487b7160e01b600052602160045260246000fd5b9052565b60208152610f5f6020820183516001600160a01b03169052565b60006020830151610120806040850152610f7d610140850183610ec7565b91506040850151606085015260608501516080850152608085015160a085015260a0850151610faf60c0860182610f23565b5060c085015160e085015260e0850151610100818187015280870151838701525050508091505092915050565b80356001600160a01b0381168114610ff357600080fd5b919050565b60006020828403121561100a57600080fd5b61101382610fdc565b9392505050565b6020808252825182820181905260009190848201906040850190845b8181101561105257835183529284019291840191600101611036565b50909695505050505050565b6001600160a01b038a168152610120602082018190526000906110838382018c610ec7565b9150508860408301528760608301528660808301526110a560a0830187610f23565b8460c08301528360e0830152826101008301529a9950505050505050505050565b600080604083850312156110d957600080fd5b6110e283610fdc565b946020939093013593505050565b634e487b7160e01b600052601160045260246000fd5b600060018201611118576111186110f0565b5060010190565b6bffffffffffffffffffffffff198760601b1681528486601483013760149401938401929092526034830152605482015260740192915050565b8082028115828204841417611170576111706110f0565b92915050565b60008261119357634e487b7160e01b600052601260045260246000fd5b500490565b634e487b7160e01b600052604160045260246000fd5b600181811c908216806111c257607f821691505b6020821081036111e257634e487b7160e01b600052602260045260246000fd5b50919050565b601f821115610d1457600081815260208120601f850160051c8101602086101561120f5750805b601f850160051c820191505b8181101561122e5782815560010161121b565b505050505050565b815167ffffffffffffffff81111561125057611250611198565b6112648161125e84546111ae565b846111e8565b602080601f83116001811461129957600084156112815750858301515b600019600386901b1c1916600185901b17855561122e565b600085815260208120601f198616915b828110156112c8578886015182559484019460019091019084016112a9565b50858210156112e65787850151600019600388901b60f8161c191681555b5050505050600190811b01905550565b60808152846080820152848660a0830137600060a08683010152600060a0601f19601f88011683010190508460208301528360408301528260608301529695505050505050565b6020808252600e908201526d496e76616c69642073746174757360901b604082015260600190565b60006020828403121561137757600080fd5b5051919050565b80820180821115611170576111706110f056fea2646970667358221220d03945ee09951aa205943def01662054f61f4b08114f2f6970036b93b8c5386964736f6c63430008140033",
  "linkReferences": {},
  "deployedLinkReferences": {}
}